{
  "contractName": "deathroll",
  "abi": [
    {
      "inputs": [],
      "stateMutability": "nonpayable",
      "type": "constructor"
    },
    {
      "inputs": [
        {
          "internalType": "uint256",
          "name": "",
          "type": "uint256"
        }
      ],
      "name": "lotteryHistory",
      "outputs": [
        {
          "internalType": "address payable",
          "name": "",
          "type": "address"
        }
      ],
      "stateMutability": "view",
      "type": "function",
      "constant": true
    },
    {
      "inputs": [],
      "name": "lotteryId",
      "outputs": [
        {
          "internalType": "uint256",
          "name": "",
          "type": "uint256"
        }
      ],
      "stateMutability": "view",
      "type": "function",
      "constant": true
    },
    {
      "inputs": [],
      "name": "owner",
      "outputs": [
        {
          "internalType": "address",
          "name": "",
          "type": "address"
        }
      ],
      "stateMutability": "view",
      "type": "function",
      "constant": true
    },
    {
      "inputs": [
        {
          "internalType": "uint256",
          "name": "",
          "type": "uint256"
        }
      ],
      "name": "players",
      "outputs": [
        {
          "internalType": "address payable",
          "name": "",
          "type": "address"
        }
      ],
      "stateMutability": "view",
      "type": "function",
      "constant": true
    },
    {
      "inputs": [],
      "name": "randomResult",
      "outputs": [
        {
          "internalType": "uint256",
          "name": "",
          "type": "uint256"
        }
      ],
      "stateMutability": "view",
      "type": "function",
      "constant": true
    },
    {
      "inputs": [
        {
          "internalType": "bytes32",
          "name": "requestId",
          "type": "bytes32"
        },
        {
          "internalType": "uint256",
          "name": "randomness",
          "type": "uint256"
        }
      ],
      "name": "rawFulfillRandomness",
      "outputs": [],
      "stateMutability": "nonpayable",
      "type": "function"
    },
    {
      "inputs": [],
      "name": "getRandomNumber",
      "outputs": [
        {
          "internalType": "bytes32",
          "name": "requestId",
          "type": "bytes32"
        }
      ],
      "stateMutability": "nonpayable",
      "type": "function"
    },
    {
      "inputs": [
        {
          "internalType": "uint256",
          "name": "lottery",
          "type": "uint256"
        }
      ],
      "name": "getWinnerByLottery",
      "outputs": [
        {
          "internalType": "address payable",
          "name": "",
          "type": "address"
        }
      ],
      "stateMutability": "view",
      "type": "function",
      "constant": true
    },
    {
      "inputs": [],
      "name": "getBalance",
      "outputs": [
        {
          "internalType": "uint256",
          "name": "",
          "type": "uint256"
        }
      ],
      "stateMutability": "view",
      "type": "function",
      "constant": true
    },
    {
      "inputs": [],
      "name": "getPlayers",
      "outputs": [
        {
          "internalType": "address payable[]",
          "name": "",
          "type": "address[]"
        }
      ],
      "stateMutability": "view",
      "type": "function",
      "constant": true
    },
    {
      "inputs": [],
      "name": "enter",
      "outputs": [],
      "stateMutability": "payable",
      "type": "function",
      "payable": true
    },
    {
      "inputs": [],
      "name": "pickWinner",
      "outputs": [],
      "stateMutability": "nonpayable",
      "type": "function"
    },
    {
      "inputs": [],
      "name": "payWinner",
      "outputs": [],
      "stateMutability": "nonpayable",
      "type": "function"
    }
  ],
  "bytecode": "0x60c060405234801561001057600080fd5b5073b3dccb4cf7a26f6cf6b120cf5a73875b7bbc655b7301be23585060835e02b77ef475b0cc51aa1e07098173ffffffffffffffffffffffffffffffffffffffff1660a08173ffffffffffffffffffffffffffffffffffffffff16815250508073ffffffffffffffffffffffffffffffffffffffff1660808173ffffffffffffffffffffffffffffffffffffffff168152505050507f2ed0feb3e7fd2022120aa84fab1945545a9f2ffc9076fd6156fa96eaff4c131160001b60058190555067016345785d8a000060068190555033600160006101000a81548173ffffffffffffffffffffffffffffffffffffffff021916908373ffffffffffffffffffffffffffffffffffffffff160217905550600160038190555060805160a0516113be61015a6000396000818161047a0152610957015260008181610763015261091b01526113be6000f3fe6080604052600436106100c25760003560e01c80638da5cb5b1161007f578063dbdff2c111610059578063dbdff2c114610244578063e580f47b1461026f578063e97dcb621461029a578063f71d96cb146102a4576100c2565b80638da5cb5b146101d957806394985ddd14610204578063be71248a1461022d576100c2565b806312065fe0146100c7578063281d098d146100f257806342619f661461012f5780635d495aea1461015a5780636d6fe230146101715780638b5b9ccc146101ae575b600080fd5b3480156100d357600080fd5b506100dc6102e1565b6040516100e99190610b96565b60405180910390f35b3480156100fe57600080fd5b5061011960048036038101906101149190610be2565b6102e9565b6040516101269190610c50565b60405180910390f35b34801561013b57600080fd5b50610144610326565b6040516101519190610b96565b60405180910390f35b34801561016657600080fd5b5061016f61032c565b005b34801561017d57600080fd5b5061019860048036038101906101939190610be2565b610391565b6040516101a59190610c50565b60405180910390f35b3480156101ba57600080fd5b506101c36103c4565b6040516101d09190610d29565b60405180910390f35b3480156101e557600080fd5b506101ee610452565b6040516101fb9190610d6c565b60405180910390f35b34801561021057600080fd5b5061022b60048036038101906102269190610dbd565b610478565b005b34801561023957600080fd5b50610242610514565b005b34801561025057600080fd5b5061025961075c565b6040516102669190610e0c565b60405180910390f35b34801561027b57600080fd5b5061028461084f565b6040516102919190610b96565b60405180910390f35b6102a2610855565b005b3480156102b057600080fd5b506102cb60048036038101906102c69190610be2565b6108cd565b6040516102d89190610c50565b60405180910390f35b600047905090565b60006004600083815260200190815260200160002060009054906101000a900473ffffffffffffffffffffffffffffffffffffffff169050919050565b60075481565b600160009054906101000a900473ffffffffffffffffffffffffffffffffffffffff1673ffffffffffffffffffffffffffffffffffffffff163373ffffffffffffffffffffffffffffffffffffffff161461038657600080fd5b61038e61075c565b50565b60046020528060005260406000206000915054906101000a900473ffffffffffffffffffffffffffffffffffffffff1681565b6060600280548060200260200160405190810160405280929190818152602001828054801561044857602002820191906000526020600020905b8160009054906101000a900473ffffffffffffffffffffffffffffffffffffffff1673ffffffffffffffffffffffffffffffffffffffff16815260200190600101908083116103fe575b5050505050905090565b600160009054906101000a900473ffffffffffffffffffffffffffffffffffffffff1681565b7f000000000000000000000000000000000000000000000000000000000000000073ffffffffffffffffffffffffffffffffffffffff163373ffffffffffffffffffffffffffffffffffffffff1614610506576040517f08c379a00000000000000000000000000000000000000000000000000000000081526004016104fd90610e84565b60405180910390fd5b610510828261090c565b5050565b600160009054906101000a900473ffffffffffffffffffffffffffffffffffffffff1673ffffffffffffffffffffffffffffffffffffffff163373ffffffffffffffffffffffffffffffffffffffff161461056e57600080fd5b6000600754116105b3576040517f08c379a00000000000000000000000000000000000000000000000000000000081526004016105aa90610f16565b60405180910390fd5b60006002805490506007546105c89190610f65565b9050600281815481106105de576105dd610f96565b5b9060005260206000200160009054906101000a900473ffffffffffffffffffffffffffffffffffffffff1673ffffffffffffffffffffffffffffffffffffffff166108fc479081150290604051600060405180830381858888f1935050505015801561064e573d6000803e3d6000fd5b506002818154811061066357610662610f96565b5b9060005260206000200160009054906101000a900473ffffffffffffffffffffffffffffffffffffffff1660046000600354815260200190815260200160002060006101000a81548173ffffffffffffffffffffffffffffffffffffffff021916908373ffffffffffffffffffffffffffffffffffffffff160217905550600360008154809291906106f490610ff4565b9190505550600067ffffffffffffffff8111156107145761071361103d565b5b6040519080825280602002602001820160405280156107425781602001602082028036833780820191505090505b5060029080519060200190610758929190610ad6565b5050565b60006006547f000000000000000000000000000000000000000000000000000000000000000073ffffffffffffffffffffffffffffffffffffffff166370a08231306040518263ffffffff1660e01b81526004016107ba9190610d6c565b602060405180830381865afa1580156107d7573d6000803e3d6000fd5b505050506040513d601f19601f820116820180604052508101906107fb9190611081565b101561083c576040517f08c379a0000000000000000000000000000000000000000000000000000000008152600401610833906110fa565b60405180910390fd5b61084a600554600654610917565b905090565b60035481565b662386f26fc10000341161086857600080fd5b6002339080600181540180825580915050600190039060005260206000200160009091909190916101000a81548173ffffffffffffffffffffffffffffffffffffffff021916908373ffffffffffffffffffffffffffffffffffffffff160217905550565b600281815481106108dd57600080fd5b906000526020600020016000915054906101000a900473ffffffffffffffffffffffffffffffffffffffff1681565b806007819055505050565b60007f000000000000000000000000000000000000000000000000000000000000000073ffffffffffffffffffffffffffffffffffffffff16634000aea07f00000000000000000000000000000000000000000000000000000000000000008486600060405160200161098b92919061111a565b6040516020818303038152906040526040518463ffffffff1660e01b81526004016109b8939291906111dc565b6020604051808303816000875af11580156109d7573d6000803e3d6000fd5b505050506040513d601f19601f820116820180604052508101906109fb9190611252565b506000610a1d8460003060008089815260200190815260200160002054610a67565b9050600160008086815260200190815260200160002054610a3e919061127f565b60008086815260200190815260200160002081905550610a5e8482610aa3565b91505092915050565b600084848484604051602001610a8094939291906112d5565b6040516020818303038152906040528051906020012060001c9050949350505050565b60008282604051602001610ab892919061135c565b60405160208183030381529060405280519060200120905092915050565b828054828255906000526020600020908101928215610b4f579160200282015b82811115610b4e5782518260006101000a81548173ffffffffffffffffffffffffffffffffffffffff021916908373ffffffffffffffffffffffffffffffffffffffff16021790555091602001919060010190610af6565b5b509050610b5c9190610b60565b5090565b5b80821115610b79576000816000905550600101610b61565b5090565b6000819050919050565b610b9081610b7d565b82525050565b6000602082019050610bab6000830184610b87565b92915050565b600080fd5b610bbf81610b7d565b8114610bca57600080fd5b50565b600081359050610bdc81610bb6565b92915050565b600060208284031215610bf857610bf7610bb1565b5b6000610c0684828501610bcd565b91505092915050565b600073ffffffffffffffffffffffffffffffffffffffff82169050919050565b6000610c3a82610c0f565b9050919050565b610c4a81610c2f565b82525050565b6000602082019050610c656000830184610c41565b92915050565b600081519050919050565b600082825260208201905092915050565b6000819050602082019050919050565b610ca081610c2f565b82525050565b6000610cb28383610c97565b60208301905092915050565b6000602082019050919050565b6000610cd682610c6b565b610ce08185610c76565b9350610ceb83610c87565b8060005b83811015610d1c578151610d038882610ca6565b9750610d0e83610cbe565b925050600181019050610cef565b5085935050505092915050565b60006020820190508181036000830152610d438184610ccb565b905092915050565b6000610d5682610c0f565b9050919050565b610d6681610d4b565b82525050565b6000602082019050610d816000830184610d5d565b92915050565b6000819050919050565b610d9a81610d87565b8114610da557600080fd5b50565b600081359050610db781610d91565b92915050565b60008060408385031215610dd457610dd3610bb1565b5b6000610de285828601610da8565b9250506020610df385828601610bcd565b9150509250929050565b610e0681610d87565b82525050565b6000602082019050610e216000830184610dfd565b92915050565b600082825260208201905092915050565b7f4f6e6c7920565246436f6f7264696e61746f722063616e2066756c66696c6c00600082015250565b6000610e6e601f83610e27565b9150610e7982610e38565b602082019050919050565b60006020820190508181036000830152610e9d81610e61565b9050919050565b7f4d7573742068617665206120736f75726365206f662072616e646f6d6e65737360008201527f206265666f72652063686f6f73696e672077696e6e6572000000000000000000602082015250565b6000610f00603783610e27565b9150610f0b82610ea4565b604082019050919050565b60006020820190508181036000830152610f2f81610ef3565b9050919050565b7f4e487b7100000000000000000000000000000000000000000000000000000000600052601260045260246000fd5b6000610f7082610b7d565b9150610f7b83610b7d565b925082610f8b57610f8a610f36565b5b828206905092915050565b7f4e487b7100000000000000000000000000000000000000000000000000000000600052603260045260246000fd5b7f4e487b7100000000000000000000000000000000000000000000000000000000600052601160045260246000fd5b6000610fff82610b7d565b91507fffffffffffffffffffffffffffffffffffffffffffffffffffffffffffffffff82141561103257611031610fc5565b5b600182019050919050565b7f4e487b7100000000000000000000000000000000000000000000000000000000600052604160045260246000fd5b60008151905061107b81610bb6565b92915050565b60006020828403121561109757611096610bb1565b5b60006110a58482850161106c565b91505092915050565b7f4e6f7420656e6f756768204c494e4b20696e20636f6e74726163740000000000600082015250565b60006110e4601b83610e27565b91506110ef826110ae565b602082019050919050565b60006020820190508181036000830152611113816110d7565b9050919050565b600060408201905061112f6000830185610dfd565b61113c6020830184610b87565b9392505050565b600081519050919050565b600082825260208201905092915050565b60005b8381101561117d578082015181840152602081019050611162565b8381111561118c576000848401525b50505050565b6000601f19601f8301169050919050565b60006111ae82611143565b6111b8818561114e565b93506111c881856020860161115f565b6111d181611192565b840191505092915050565b60006060820190506111f16000830186610d5d565b6111fe6020830185610b87565b818103604083015261121081846111a3565b9050949350505050565b60008115159050919050565b61122f8161121a565b811461123a57600080fd5b50565b60008151905061124c81611226565b92915050565b60006020828403121561126857611267610bb1565b5b60006112768482850161123d565b91505092915050565b600061128a82610b7d565b915061129583610b7d565b9250827fffffffffffffffffffffffffffffffffffffffffffffffffffffffffffffffff038211156112ca576112c9610fc5565b5b828201905092915050565b60006080820190506112ea6000830187610dfd565b6112f76020830186610b87565b6113046040830185610d5d565b6113116060830184610b87565b95945050505050565b6000819050919050565b61133561133082610d87565b61131a565b82525050565b6000819050919050565b61135661135182610b7d565b61133b565b82525050565b60006113688285611324565b6020820191506113788284611345565b602082019150819050939250505056fea26469706673582212205b9f7b19186f97cfcb4bc5934cffe5ae56afe0d3350bc9bb8e511e7f93b6275064736f6c634300080c0033",
  "immutableReferences": {
    "73": [
      {
        "length": 32,
        "start": 1891
      },
      {
        "length": 32,
        "start": 2331
      }
    ],
    "75": [
      {
        "length": 32,
        "start": 1146
      },
      {
        "length": 32,
        "start": 2391
      }
    ]
  },
  "source": "// SPDX-License-Identifier: MIT\r\n\r\npragma solidity ^0.8.0;\r\n\r\nimport \"@chainlink/contracts/src/v0.8/VRFConsumerBase.sol\";\r\n\r\ncontract deathroll is VRFConsumerBase {\r\n    address public owner;\r\n    address payable[] public players;\r\n    uint public lotteryId;\r\n    mapping (uint => address payable) public lotteryHistory;\r\n\r\n    bytes32 internal keyHash; // identifies which Chainlink oracle to use\r\n    uint internal fee;        // fee to get random number\r\n    uint public randomResult;\r\n\r\n    constructor()\r\n        VRFConsumerBase(\r\n            0xb3dCcb4Cf7a26f6cf6B120Cf5A73875B7BBc655B, // VRF coordinator\r\n            0x01BE23585060835E02B77ef475b0Cc51aA1e0709  // LINK token address\r\n        ) {\r\n            keyHash = 0x2ed0feb3e7fd2022120aa84fab1945545a9f2ffc9076fd6156fa96eaff4c1311;\r\n            fee = 0.1 * 10 ** 18;    // 0.1 LINK\r\n\r\n            owner = msg.sender;\r\n            lotteryId = 1;\r\n        }\r\n\r\n    function getRandomNumber() public returns (bytes32 requestId) {\r\n        require(LINK.balanceOf(address(this)) >= fee, \"Not enough LINK in contract\");\r\n        return requestRandomness(keyHash, fee);\r\n    }\r\n\r\n    function fulfillRandomness(bytes32 requestId, uint randomness) internal override {\r\n        randomResult = randomness;\r\n    }\r\n\r\n    function getWinnerByLottery(uint lottery) public view returns (address payable) {\r\n        return lotteryHistory[lottery];\r\n    }\r\n\r\n    function getBalance() public view returns (uint) {\r\n        return address(this).balance;\r\n    }\r\n\r\n    function getPlayers() public view returns (address payable[] memory) {\r\n        return players;\r\n    }\r\n\r\n    function enter() public payable {\r\n        require(msg.value > .01 ether);\r\n\r\n        // address of player entering lottery\r\n        players.push(payable(msg.sender));\r\n    }\r\n\r\n    function pickWinner() public onlyowner {\r\n        getRandomNumber();\r\n    }\r\n\r\n    function payWinner() public onlyowner {\r\n        require(randomResult > 0, \"Must have a source of randomness before choosing winner\");\r\n        uint index = randomResult % players.length;\r\n        players[index].transfer(address(this).balance);\r\n\r\n        lotteryHistory[lotteryId] = players[index];\r\n        lotteryId++;\r\n        \r\n        // reset the state of the contract\r\n        players = new address payable[](0);\r\n    }\r\n\r\n    modifier onlyowner() {\r\n      require(msg.sender == owner);\r\n      _;\r\n    }\r\n}\r\n\r\n    // uint256 public betAmount;\r\n    // uint8 public randomExample;\r\n    //  //starting dice side and bet amount - 1 player proposes, the second player agrees\r\n    // //start with starting amount ($) \r\n    // //50 sided dice - d50\r\n    // bool public gameOver;\r\n    // struct GameState {\r\n    //     uint8 diceSize;\r\n    //     address whoseTurn;\r\n    // }\r\n    // GameState public state;\r\n\r\n    // uint256 public timeoutInterval;\r\n    // uint256 public timeout = 2**256 - 1;\r\n\r\n    // event GameStarted();\r\n    // event TimeoutStarted();\r\n    // event RollMade(address player, uint8 value);\r\n\r\n\r\n    // // Setup methods\r\n\r\n    // constructor(uint256 _timeoutInterval, uint8 _diceSize) public payable {\r\n    //     player1 = msg.sender;\r\n    //     betAmount = msg.value;\r\n    //     state.diceSize = _diceSize;\r\n    //     timeoutInterval = _timeoutInterval;\r\n    // }\r\n\r\n    // function join() public payable {\r\n    //     //require(player2 == 0, \"Game has already started.\");\r\n    //     require(!gameOver, \"Game was canceled.\");\r\n    //     require(msg.value == betAmount, \"Wrong bet amount.\");\r\n\r\n    //     player2 = msg.sender;\r\n    //     state.whoseTurn = player1;\r\n\r\n    //     emit GameStarted();\r\n    // }\r\n\r\n    // function cancel() public {\r\n    //     //require(msg.sender == player1, \"Only first player may cancel.\");\r\n    //     //require(player2 == 0, \"Game has already started.\");\r\n\r\n    //     gameOver = true;\r\n    //     payable(msg.sender).transfer(address(this).balance);\r\n    // }\r\n\r\n\r\n    // // Play methods\r\n\r\n    // function move() public {\r\n    //     require(!gameOver, \"Game has ended.\");\r\n    //     require(msg.sender == state.whoseTurn, \"Not your turn.\");\r\n    //     //assume random number is generated for now\r\n\r\n    //     state.diceSize = randomExample;\r\n    //     state.whoseTurn = opponentOf(msg.sender);\r\n\r\n    //     // Clear timeout\r\n    //     timeout = 2**256 - 1;\r\n\r\n    //     if (state.diceSize == 1) {\r\n    //         gameOver = true;\r\n    //         payable(msg.sender).transfer(address(this).balance); //change to make address payable\r\n    //     }\r\n\r\n    //     emit RollMade(msg.sender, randomExample);\r\n    // }\r\n\r\n    // function opponentOf(address player) internal view returns (address) {\r\n    //     //require(player2 != 0, \"Game has not started.\");\r\n\r\n    //     if (player == player1) {\r\n    //         return player2;\r\n    //     } else if (player == player2) {\r\n    //         return player1;\r\n    //     } else {\r\n    //         revert(\"Invalid player.\");\r\n    //     }\r\n    // }\r\n\r\n\r\n    // // Timeout methods\r\n\r\n    // function startTimeout() public {\r\n    //     require(!gameOver, \"Game has ended.\");\r\n    //     require(state.whoseTurn == opponentOf(msg.sender),\r\n    //         \"Cannot start a timeout on yourself.\");\r\n\r\n    //     timeout = block.timestamp + timeoutInterval;\r\n    //     emit TimeoutStarted();\r\n    // }\r\n\r\n    // function claimTimeout() public {\r\n    //     require(!gameOver, \"Game has ended.\");\r\n    //     require(block.timestamp >= timeout);\r\n\r\n    //     gameOver = true;\r\n    //     payable(opponentOf(state.whoseTurn)).transfer(address(this).balance);\r\n    // }",
  "sourcePath": "/mnt/c/Users/bomma/blackjack-game/sm_blackjack/contracts/deathroll.sol",
  "compiler": {
    "name": "solc",
    "version": "0.8.12+commit.f00d7308.Emscripten.clang"
  },
  "schemaVersion": "3.4.5",
  "updatedAt": "2022-04-19T22:06:35.552Z",
  "networkType": "ethereum",
  "devdoc": {
    "kind": "dev",
    "methods": {},
    "version": 1
  },
  "userdoc": {
    "kind": "user",
    "methods": {},
    "version": 1
  }
}