{
  "contractName": "deathroll",
  "abi": [
    {
      "inputs": [],
      "stateMutability": "nonpayable",
      "type": "constructor"
    },
    {
      "inputs": [],
      "name": "dicenum",
      "outputs": [
        {
          "internalType": "uint256",
          "name": "",
          "type": "uint256"
        }
      ],
      "stateMutability": "view",
      "type": "function",
      "constant": true
    },
    {
      "inputs": [
        {
          "internalType": "uint256",
          "name": "",
          "type": "uint256"
        }
      ],
      "name": "lotteryHistory",
      "outputs": [
        {
          "internalType": "address payable",
          "name": "",
          "type": "address"
        }
      ],
      "stateMutability": "view",
      "type": "function",
      "constant": true
    },
    {
      "inputs": [],
      "name": "lotteryId",
      "outputs": [
        {
          "internalType": "uint256",
          "name": "",
          "type": "uint256"
        }
      ],
      "stateMutability": "view",
      "type": "function",
      "constant": true
    },
    {
      "inputs": [],
      "name": "owner",
      "outputs": [
        {
          "internalType": "address",
          "name": "",
          "type": "address"
        }
      ],
      "stateMutability": "view",
      "type": "function",
      "constant": true
    },
    {
      "inputs": [],
      "name": "playerindex",
      "outputs": [
        {
          "internalType": "uint256",
          "name": "",
          "type": "uint256"
        }
      ],
      "stateMutability": "view",
      "type": "function",
      "constant": true
    },
    {
      "inputs": [
        {
          "internalType": "uint256",
          "name": "",
          "type": "uint256"
        }
      ],
      "name": "players",
      "outputs": [
        {
          "internalType": "address payable",
          "name": "",
          "type": "address"
        }
      ],
      "stateMutability": "view",
      "type": "function",
      "constant": true
    },
    {
      "inputs": [],
      "name": "randomResult",
      "outputs": [
        {
          "internalType": "uint256",
          "name": "",
          "type": "uint256"
        }
      ],
      "stateMutability": "view",
      "type": "function",
      "constant": true
    },
    {
      "inputs": [
        {
          "internalType": "bytes32",
          "name": "requestId",
          "type": "bytes32"
        },
        {
          "internalType": "uint256",
          "name": "randomness",
          "type": "uint256"
        }
      ],
      "name": "rawFulfillRandomness",
      "outputs": [],
      "stateMutability": "nonpayable",
      "type": "function"
    },
    {
      "inputs": [],
      "name": "getRandomNumber",
      "outputs": [
        {
          "internalType": "bytes32",
          "name": "requestId",
          "type": "bytes32"
        }
      ],
      "stateMutability": "nonpayable",
      "type": "function"
    },
    {
      "inputs": [
        {
          "internalType": "uint256",
          "name": "lottery",
          "type": "uint256"
        }
      ],
      "name": "getWinnerByLottery",
      "outputs": [
        {
          "internalType": "address payable",
          "name": "",
          "type": "address"
        }
      ],
      "stateMutability": "view",
      "type": "function",
      "constant": true
    },
    {
      "inputs": [],
      "name": "getBalance",
      "outputs": [
        {
          "internalType": "uint256",
          "name": "",
          "type": "uint256"
        }
      ],
      "stateMutability": "view",
      "type": "function",
      "constant": true
    },
    {
      "inputs": [],
      "name": "lookatRandom",
      "outputs": [
        {
          "internalType": "uint256",
          "name": "",
          "type": "uint256"
        }
      ],
      "stateMutability": "view",
      "type": "function",
      "constant": true
    },
    {
      "inputs": [],
      "name": "lookatDiceNum",
      "outputs": [
        {
          "internalType": "uint256",
          "name": "",
          "type": "uint256"
        }
      ],
      "stateMutability": "view",
      "type": "function",
      "constant": true
    },
    {
      "inputs": [],
      "name": "getPlayers",
      "outputs": [
        {
          "internalType": "address payable[]",
          "name": "",
          "type": "address[]"
        }
      ],
      "stateMutability": "view",
      "type": "function",
      "constant": true
    },
    {
      "inputs": [],
      "name": "enter",
      "outputs": [],
      "stateMutability": "payable",
      "type": "function",
      "payable": true
    },
    {
      "inputs": [],
      "name": "startRandom",
      "outputs": [],
      "stateMutability": "nonpayable",
      "type": "function"
    },
    {
      "inputs": [],
      "name": "roll",
      "outputs": [],
      "stateMutability": "nonpayable",
      "type": "function"
    },
    {
      "inputs": [],
      "name": "payWinner",
      "outputs": [],
      "stateMutability": "nonpayable",
      "type": "function"
    }
  ],
  "bytecode": "0x60c060405234801561001057600080fd5b5073b3dccb4cf7a26f6cf6b120cf5a73875b7bbc655b7301be23585060835e02b77ef475b0cc51aa1e07098173ffffffffffffffffffffffffffffffffffffffff1660a08173ffffffffffffffffffffffffffffffffffffffff16815250508073ffffffffffffffffffffffffffffffffffffffff1660808173ffffffffffffffffffffffffffffffffffffffff168152505050507f2ed0feb3e7fd2022120aa84fab1945545a9f2ffc9076fd6156fa96eaff4c131160001b60058190555067016345785d8a000060068190555033600160006101000a81548173ffffffffffffffffffffffffffffffffffffffff021916908373ffffffffffffffffffffffffffffffffffffffff1602179055506000600a81905550600a6009819055506000600860006101000a81548160ff0219169083151502179055506001600381905550600060078190555060805160a05161177a61018d600039600081816106270152610cdf015260008181610a360152610ca3015261177a6000f3fe6080604052600436106101095760003560e01c80638da5cb5b11610095578063dbdff2c111610064578063dbdff2c114610323578063e12795f11461034e578063e580f47b14610379578063e97dcb62146103a4578063f71d96cb146103ae57610109565b80638da5cb5b146102a157806394985ddd146102cc578063be71248a146102f5578063cd5e3c5d1461030c57610109565b806342619f66116100dc57806342619f66146101cc5780634b1d0eae146101f757806364793e7d1461020e5780636d6fe230146102395780638b5b9ccc1461027657610109565b80630ac1b3ed1461010e57806312065fe014610139578063281d098d1461016457806337bb76fc146101a1575b600080fd5b34801561011a57600080fd5b506101236103eb565b6040516101309190610f1e565b60405180910390f35b34801561014557600080fd5b5061014e6103f5565b60405161015b9190610f1e565b60405180910390f35b34801561017057600080fd5b5061018b60048036038101906101869190610f6a565b6103fd565b6040516101989190610fd8565b60405180910390f35b3480156101ad57600080fd5b506101b661043a565b6040516101c39190610f1e565b60405180910390f35b3480156101d857600080fd5b506101e1610444565b6040516101ee9190610f1e565b60405180910390f35b34801561020357600080fd5b5061020c61044a565b005b34801561021a57600080fd5b50610223610538565b6040516102309190610f1e565b60405180910390f35b34801561024557600080fd5b50610260600480360381019061025b9190610f6a565b61053e565b60405161026d9190610fd8565b60405180910390f35b34801561028257600080fd5b5061028b610571565b60405161029891906110b1565b60405180910390f35b3480156102ad57600080fd5b506102b66105ff565b6040516102c391906110f4565b60405180910390f35b3480156102d857600080fd5b506102f360048036038101906102ee9190611145565b610625565b005b34801561030157600080fd5b5061030a6106c1565b005b34801561031857600080fd5b5061032161090a565b005b34801561032f57600080fd5b50610338610a2f565b6040516103459190611194565b60405180910390f35b34801561035a57600080fd5b50610363610b22565b6040516103709190610f1e565b60405180910390f35b34801561038557600080fd5b5061038e610b28565b60405161039b9190610f1e565b60405180910390f35b6103ac610b2e565b005b3480156103ba57600080fd5b506103d560048036038101906103d09190610f6a565b610bc6565b6040516103e29190610fd8565b60405180910390f35b6000600754905090565b600047905090565b60006004600083815260200190815260200160002060009054906101000a900473ffffffffffffffffffffffffffffffffffffffff169050919050565b6000600954905090565b60075481565b6002600a54815481106104605761045f6111af565b5b9060005260206000200160009054906101000a900473ffffffffffffffffffffffffffffffffffffffff1673ffffffffffffffffffffffffffffffffffffffff163373ffffffffffffffffffffffffffffffffffffffff16146104c257600080fd5b600a60095414156104e9576001600860006101000a81548160ff0219169083151502179055505b6000600754146104f857600080fd5b60016002805490501161050a57600080fd5b6001600860006101000a81548160ff021916908315150217905561052d57600080fd5b610535610a2f565b50565b60095481565b60046020528060005260406000206000915054906101000a900473ffffffffffffffffffffffffffffffffffffffff1681565b606060028054806020026020016040519081016040528092919081815260200182805480156105f557602002820191906000526020600020905b8160009054906101000a900473ffffffffffffffffffffffffffffffffffffffff1673ffffffffffffffffffffffffffffffffffffffff16815260200190600101908083116105ab575b5050505050905090565b600160009054906101000a900473ffffffffffffffffffffffffffffffffffffffff1681565b7f000000000000000000000000000000000000000000000000000000000000000073ffffffffffffffffffffffffffffffffffffffff163373ffffffffffffffffffffffffffffffffffffffff16146106b3576040517f08c379a00000000000000000000000000000000000000000000000000000000081526004016106aa9061123b565b60405180910390fd5b6106bd8282610c05565b5050565b600160009054906101000a900473ffffffffffffffffffffffffffffffffffffffff1673ffffffffffffffffffffffffffffffffffffffff163373ffffffffffffffffffffffffffffffffffffffff161461071b57600080fd5b60001515600860009054906101000a900460ff1615151461073b57600080fd5b60006009541461074a57600080fd5b6002600a54815481106107605761075f6111af565b5b9060005260206000200160009054906101000a900473ffffffffffffffffffffffffffffffffffffffff1673ffffffffffffffffffffffffffffffffffffffff166108fc479081150290604051600060405180830381858888f193505050501580156107d0573d6000803e3d6000fd5b506002600a54815481106107e7576107e66111af565b5b9060005260206000200160009054906101000a900473ffffffffffffffffffffffffffffffffffffffff1660046000600354815260200190815260200160002060006101000a81548173ffffffffffffffffffffffffffffffffffffffff021916908373ffffffffffffffffffffffffffffffffffffffff160217905550600360008154809291906108789061128a565b9190505550600067ffffffffffffffff811115610898576108976112d3565b5b6040519080825280602002602001820160405280156108c65781602001602082028036833780820191505090505b50600290805190602001906108dc929190610e5e565b50600a6009819055506000600860006101000a81548160ff0219169083151502179055506000600a81905550565b6002600a54815481106109205761091f6111af565b5b9060005260206000200160009054906101000a900473ffffffffffffffffffffffffffffffffffffffff1673ffffffffffffffffffffffffffffffffffffffff163373ffffffffffffffffffffffffffffffffffffffff161461098257600080fd5b6000600754116109c7576040517f08c379a00000000000000000000000000000000000000000000000000000000081526004016109be90611374565b60405180910390fd5b6009546007546109d791906113c3565b60098190555060006009541415610a16576000600860006101000a81548160ff021916908315150217905550610a0b610c10565b600a81905550610a25565b610a1e610c57565b600a819055505b6000600781905550565b60006006547f000000000000000000000000000000000000000000000000000000000000000073ffffffffffffffffffffffffffffffffffffffff166370a08231306040518263ffffffff1660e01b8152600401610a8d91906110f4565b602060405180830381865afa158015610aaa573d6000803e3d6000fd5b505050506040513d601f19601f82011682018060405250810190610ace9190611409565b1015610b0f576040517f08c379a0000000000000000000000000000000000000000000000000000000008152600401610b0690611482565b60405180910390fd5b610b1d600554600654610c9f565b905090565b600a5481565b60035481565b662386f26fc100003411610b4157600080fd5b60001515600860009054906101000a900460ff16151514610b6157600080fd5b6002339080600181540180825580915050600190039060005260206000200160009091909190916101000a81548173ffffffffffffffffffffffffffffffffffffffff021916908373ffffffffffffffffffffffffffffffffffffffff160217905550565b60028181548110610bd657600080fd5b906000526020600020016000915054906101000a900473ffffffffffffffffffffffffffffffffffffffff1681565b806007819055505050565b600080600a541415610c39576001600280549050610c2e91906114a2565b600a81905550610c4f565b6001600a54610c4891906114a2565b600a819055505b600a54905090565b60006001600280549050610c6b91906114a2565b600a541415610c81576000600a81905550610c97565b6001600a54610c9091906114d6565b600a819055505b600a54905090565b60007f000000000000000000000000000000000000000000000000000000000000000073ffffffffffffffffffffffffffffffffffffffff16634000aea07f000000000000000000000000000000000000000000000000000000000000000084866000604051602001610d1392919061152c565b6040516020818303038152906040526040518463ffffffff1660e01b8152600401610d40939291906115ee565b6020604051808303816000875af1158015610d5f573d6000803e3d6000fd5b505050506040513d601f19601f82011682018060405250810190610d839190611664565b506000610da58460003060008089815260200190815260200160002054610def565b9050600160008086815260200190815260200160002054610dc691906114d6565b60008086815260200190815260200160002081905550610de68482610e2b565b91505092915050565b600084848484604051602001610e089493929190611691565b6040516020818303038152906040528051906020012060001c9050949350505050565b60008282604051602001610e40929190611718565b60405160208183030381529060405280519060200120905092915050565b828054828255906000526020600020908101928215610ed7579160200282015b82811115610ed65782518260006101000a81548173ffffffffffffffffffffffffffffffffffffffff021916908373ffffffffffffffffffffffffffffffffffffffff16021790555091602001919060010190610e7e565b5b509050610ee49190610ee8565b5090565b5b80821115610f01576000816000905550600101610ee9565b5090565b6000819050919050565b610f1881610f05565b82525050565b6000602082019050610f336000830184610f0f565b92915050565b600080fd5b610f4781610f05565b8114610f5257600080fd5b50565b600081359050610f6481610f3e565b92915050565b600060208284031215610f8057610f7f610f39565b5b6000610f8e84828501610f55565b91505092915050565b600073ffffffffffffffffffffffffffffffffffffffff82169050919050565b6000610fc282610f97565b9050919050565b610fd281610fb7565b82525050565b6000602082019050610fed6000830184610fc9565b92915050565b600081519050919050565b600082825260208201905092915050565b6000819050602082019050919050565b61102881610fb7565b82525050565b600061103a838361101f565b60208301905092915050565b6000602082019050919050565b600061105e82610ff3565b6110688185610ffe565b93506110738361100f565b8060005b838110156110a457815161108b888261102e565b975061109683611046565b925050600181019050611077565b5085935050505092915050565b600060208201905081810360008301526110cb8184611053565b905092915050565b60006110de82610f97565b9050919050565b6110ee816110d3565b82525050565b600060208201905061110960008301846110e5565b92915050565b6000819050919050565b6111228161110f565b811461112d57600080fd5b50565b60008135905061113f81611119565b92915050565b6000806040838503121561115c5761115b610f39565b5b600061116a85828601611130565b925050602061117b85828601610f55565b9150509250929050565b61118e8161110f565b82525050565b60006020820190506111a96000830184611185565b92915050565b7f4e487b7100000000000000000000000000000000000000000000000000000000600052603260045260246000fd5b600082825260208201905092915050565b7f4f6e6c7920565246436f6f7264696e61746f722063616e2066756c66696c6c00600082015250565b6000611225601f836111de565b9150611230826111ef565b602082019050919050565b6000602082019050818103600083015261125481611218565b9050919050565b7f4e487b7100000000000000000000000000000000000000000000000000000000600052601160045260246000fd5b600061129582610f05565b91507fffffffffffffffffffffffffffffffffffffffffffffffffffffffffffffffff8214156112c8576112c761125b565b5b600182019050919050565b7f4e487b7100000000000000000000000000000000000000000000000000000000600052604160045260246000fd5b7f4d7573742068617665206120736f75726365206f662072616e646f6d6e65737360008201527f207768656e20726f6c6c696e6700000000000000000000000000000000000000602082015250565b600061135e602d836111de565b915061136982611302565b604082019050919050565b6000602082019050818103600083015261138d81611351565b9050919050565b7f4e487b7100000000000000000000000000000000000000000000000000000000600052601260045260246000fd5b60006113ce82610f05565b91506113d983610f05565b9250826113e9576113e8611394565b5b828206905092915050565b60008151905061140381610f3e565b92915050565b60006020828403121561141f5761141e610f39565b5b600061142d848285016113f4565b91505092915050565b7f4e6f7420656e6f756768204c494e4b20696e20636f6e74726163740000000000600082015250565b600061146c601b836111de565b915061147782611436565b602082019050919050565b6000602082019050818103600083015261149b8161145f565b9050919050565b60006114ad82610f05565b91506114b883610f05565b9250828210156114cb576114ca61125b565b5b828203905092915050565b60006114e182610f05565b91506114ec83610f05565b9250827fffffffffffffffffffffffffffffffffffffffffffffffffffffffffffffffff038211156115215761152061125b565b5b828201905092915050565b60006040820190506115416000830185611185565b61154e6020830184610f0f565b9392505050565b600081519050919050565b600082825260208201905092915050565b60005b8381101561158f578082015181840152602081019050611574565b8381111561159e576000848401525b50505050565b6000601f19601f8301169050919050565b60006115c082611555565b6115ca8185611560565b93506115da818560208601611571565b6115e3816115a4565b840191505092915050565b600060608201905061160360008301866110e5565b6116106020830185610f0f565b818103604083015261162281846115b5565b9050949350505050565b60008115159050919050565b6116418161162c565b811461164c57600080fd5b50565b60008151905061165e81611638565b92915050565b60006020828403121561167a57611679610f39565b5b60006116888482850161164f565b91505092915050565b60006080820190506116a66000830187611185565b6116b36020830186610f0f565b6116c060408301856110e5565b6116cd6060830184610f0f565b95945050505050565b6000819050919050565b6116f16116ec8261110f565b6116d6565b82525050565b6000819050919050565b61171261170d82610f05565b6116f7565b82525050565b600061172482856116e0565b6020820191506117348284611701565b602082019150819050939250505056fea2646970667358221220740f30191ca51c69a88829d5386fef3b3aa36e682d9135f242de99cb66dd092f64736f6c634300080c0033",
  "immutableReferences": {
    "73": [
      {
        "length": 32,
        "start": 2614
      },
      {
        "length": 32,
        "start": 3235
      }
    ],
    "75": [
      {
        "length": 32,
        "start": 1575
      },
      {
        "length": 32,
        "start": 3295
      }
    ]
  },
  "source": "// SPDX-License-Identifier: MIT\r\n\r\npragma solidity ^0.8.0;\r\n\r\nimport \"@chainlink/contracts/src/v0.8/VRFConsumerBase.sol\";\r\n\r\ncontract deathroll is VRFConsumerBase {\r\n    address public owner;\r\n    address payable[] public players;\r\n    uint public lotteryId;\r\n    mapping (uint => address payable) public lotteryHistory;\r\n\r\n    bytes32 internal keyHash; // identifies which Chainlink oracle to use\r\n    uint internal fee;        // fee to get random number\r\n    uint public randomResult;\r\n    bool gamestarted;\r\n    uint public dicenum;\r\n    uint public playerindex;\r\n\r\n    constructor()\r\n        VRFConsumerBase(\r\n            0xb3dCcb4Cf7a26f6cf6B120Cf5A73875B7BBc655B, // VRF coordinator\r\n            0x01BE23585060835E02B77ef475b0Cc51aA1e0709  // LINK token address\r\n        ) {\r\n            keyHash = 0x2ed0feb3e7fd2022120aa84fab1945545a9f2ffc9076fd6156fa96eaff4c1311;\r\n            fee = 0.1 * 10 ** 18;    // 0.1 LINK\r\n            //initialize variables for the contract\r\n            owner = msg.sender;\r\n            playerindex = 0;\r\n            dicenum = 10;\r\n            gamestarted = false;\r\n            lotteryId = 1;\r\n            randomResult = 0;\r\n        }\r\n\r\n    function getRandomNumber() public returns (bytes32 requestId) {\r\n        require(LINK.balanceOf(address(this)) >= fee, \"Not enough LINK in contract\"); \r\n        return requestRandomness(keyHash, fee);\r\n    }\r\n\r\n    function fulfillRandomness(bytes32 requestId, uint randomness) internal override {\r\n        randomResult = randomness; //overrides internal function to get random number from chainlink\r\n    }\r\n\r\n    function getWinnerByLottery(uint lottery) public view returns (address payable) {\r\n        return lotteryHistory[lottery]; //gets the individual winner with index\r\n    }\r\n\r\n    function getBalance() public view returns (uint) {\r\n        return address(this).balance;\r\n    }\r\n\r\n    function lookatRandom() public view returns (uint) {\r\n        return randomResult;\r\n    }\r\n\r\n    function lookatDiceNum() public view returns (uint) {\r\n        return dicenum;\r\n    }\r\n\r\n    function getPlayers() public view returns (address payable[] memory) {\r\n        return players;\r\n    }\r\n\r\n    function enter() public payable {\r\n        require(msg.value > .01 ether);\r\n        require(gamestarted == false);\r\n        players.push(payable(msg.sender));\r\n    }\r\n\r\n    function startRandom() public currentplayer {\r\n        if(dicenum == 10) {\r\n            gamestarted = true; //only does 1 time\r\n        }\r\n        require(randomResult == 0); //prevents getting another random number for same turn\r\n        require(players.length > 1);\r\n        require(gamestarted = true);\r\n        getRandomNumber();\r\n    }\r\n\r\n    function roll() public currentplayer{\r\n        require(randomResult > 0, \"Must have a source of randomness when rolling\");\r\n        dicenum = randomResult % dicenum; //returns a range between 0 to dicenum-1\r\n        if(dicenum == 0){\r\n            gamestarted = false; //end the game and get winning player's index\r\n            playerindex = winnerindex();\r\n        } \r\n        else{\r\n            playerindex = nextturn();          \r\n        }\r\n        randomResult = 0;\r\n    }\r\n\r\n    function payWinner() public onlyowner {   \r\n        require(gamestarted == false);\r\n        require(dicenum == 0); //game has to be done      \r\n        players[playerindex].transfer(address(this).balance);\r\n        lotteryHistory[lotteryId] = players[playerindex];\r\n        lotteryId++;\r\n        // reset the state of the contract\r\n        players = new address payable[](0);\r\n        dicenum = 10;\r\n        gamestarted = false;\r\n        playerindex = 0;\r\n    }\r\n\r\n    function winnerindex() private returns(uint){ //private to avoid index manipulation\r\n        if (playerindex == 0){\r\n            playerindex = players.length-1;\r\n        } else{\r\n            playerindex=playerindex-1;\r\n        }\r\n        return playerindex;\r\n    }\r\n\r\n    function nextturn() private returns(uint) {\r\n        if (playerindex == players.length-1){\r\n            playerindex = 0;\r\n        } else{\r\n            playerindex=playerindex+1;\r\n        }\r\n        return playerindex;\r\n    }\r\n\r\n    modifier onlyowner() {\r\n      require(msg.sender == owner);\r\n      _;\r\n    }\r\n\r\n    modifier currentplayer() { //so only the next player can roll\r\n      require(msg.sender == players[playerindex]);\r\n      _;\r\n    }\r\n}\r\n\r\n",
  "sourcePath": "/mnt/c/Users/bomma/deathroll-game/sm_deathroll/contracts/deathroll.sol",
  "compiler": {
    "name": "solc",
    "version": "0.8.12+commit.f00d7308.Emscripten.clang"
  },
  "schemaVersion": "3.4.5",
  "updatedAt": "2022-05-01T19:19:52.847Z",
  "networkType": "ethereum",
  "devdoc": {
    "kind": "dev",
    "methods": {},
    "version": 1
  },
  "userdoc": {
    "kind": "user",
    "methods": {},
    "version": 1
  }
}