{
  "contractName": "deathrollGame",
  "abi": [
    {
      "inputs": [
        {
          "internalType": "uint256",
          "name": "_timeoutInterval",
          "type": "uint256"
        },
        {
          "internalType": "uint8",
          "name": "_diceSize",
          "type": "uint8"
        }
      ],
      "stateMutability": "payable",
      "type": "constructor"
    },
    {
      "anonymous": false,
      "inputs": [],
      "name": "GameStarted",
      "type": "event"
    },
    {
      "anonymous": false,
      "inputs": [
        {
          "indexed": false,
          "internalType": "address",
          "name": "player",
          "type": "address"
        },
        {
          "indexed": false,
          "internalType": "uint8",
          "name": "value",
          "type": "uint8"
        }
      ],
      "name": "RollMade",
      "type": "event"
    },
    {
      "anonymous": false,
      "inputs": [],
      "name": "TimeoutStarted",
      "type": "event"
    },
    {
      "inputs": [],
      "name": "betAmount",
      "outputs": [
        {
          "internalType": "uint256",
          "name": "",
          "type": "uint256"
        }
      ],
      "stateMutability": "view",
      "type": "function"
    },
    {
      "inputs": [],
      "name": "gameOver",
      "outputs": [
        {
          "internalType": "bool",
          "name": "",
          "type": "bool"
        }
      ],
      "stateMutability": "view",
      "type": "function"
    },
    {
      "inputs": [],
      "name": "player1",
      "outputs": [
        {
          "internalType": "address",
          "name": "",
          "type": "address"
        }
      ],
      "stateMutability": "view",
      "type": "function"
    },
    {
      "inputs": [],
      "name": "player2",
      "outputs": [
        {
          "internalType": "address",
          "name": "",
          "type": "address"
        }
      ],
      "stateMutability": "view",
      "type": "function"
    },
    {
      "inputs": [],
      "name": "randomExample",
      "outputs": [
        {
          "internalType": "uint8",
          "name": "",
          "type": "uint8"
        }
      ],
      "stateMutability": "view",
      "type": "function"
    },
    {
      "inputs": [],
      "name": "state",
      "outputs": [
        {
          "internalType": "uint8",
          "name": "diceSize",
          "type": "uint8"
        },
        {
          "internalType": "address",
          "name": "whoseTurn",
          "type": "address"
        }
      ],
      "stateMutability": "view",
      "type": "function"
    },
    {
      "inputs": [],
      "name": "timeout",
      "outputs": [
        {
          "internalType": "uint256",
          "name": "",
          "type": "uint256"
        }
      ],
      "stateMutability": "view",
      "type": "function"
    },
    {
      "inputs": [],
      "name": "timeoutInterval",
      "outputs": [
        {
          "internalType": "uint256",
          "name": "",
          "type": "uint256"
        }
      ],
      "stateMutability": "view",
      "type": "function"
    },
    {
      "inputs": [],
      "name": "join",
      "outputs": [],
      "stateMutability": "payable",
      "type": "function"
    },
    {
      "inputs": [],
      "name": "cancel",
      "outputs": [],
      "stateMutability": "nonpayable",
      "type": "function"
    },
    {
      "inputs": [],
      "name": "move",
      "outputs": [],
      "stateMutability": "nonpayable",
      "type": "function"
    },
    {
      "inputs": [],
      "name": "startTimeout",
      "outputs": [],
      "stateMutability": "nonpayable",
      "type": "function"
    },
    {
      "inputs": [],
      "name": "claimTimeout",
      "outputs": [],
      "stateMutability": "nonpayable",
      "type": "function"
    }
  ],
  "bytecode": "0x60806040527fffffffffffffffffffffffffffffffffffffffffffffffffffffffffffffffff6006556040516200111b3803806200111b83398181016040528101906200004d91906200013f565b336000806101000a81548173ffffffffffffffffffffffffffffffffffffffff021916908373ffffffffffffffffffffffffffffffffffffffff1602179055503460028190555080600460000160006101000a81548160ff021916908360ff16021790555081600581905550505062000186565b600080fd5b6000819050919050565b620000db81620000c6565b8114620000e757600080fd5b50565b600081519050620000fb81620000d0565b92915050565b600060ff82169050919050565b620001198162000101565b81146200012557600080fd5b50565b60008151905062000139816200010e565b92915050565b60008060408385031215620001595762000158620000c1565b5b60006200016985828601620000ea565b92505060206200017c8582860162000128565b9150509250929050565b610f8580620001966000396000f3fe6080604052600436106100c25760003560e01c8063949031f01161007f578063c19d93fb11610059578063c19d93fb146101ed578063d24257c014610219578063d30895e414610244578063ea8a1af01461026f576100c2565b8063949031f01461018d578063b688a363146101b8578063bdb337d1146101c2576100c2565b80630e1da6c3146100c75780630e76f9db146100de5780633ec48a2e1461010957806359a5f12d1461012057806370dea79a1461014b5780637a45589414610176575b600080fd5b3480156100d357600080fd5b506100dc610286565b005b3480156100ea57600080fd5b506100f3610376565b6040516101009190610ad5565b60405180910390f35b34801561011557600080fd5b5061011e61037c565b005b34801561012c57600080fd5b506101356105ca565b6040516101429190610b31565b60405180910390f35b34801561015757600080fd5b506101606105f0565b60405161016d9190610ad5565b60405180910390f35b34801561018257600080fd5b5061018b6105f6565b005b34801561019957600080fd5b506101a2610723565b6040516101af9190610b68565b60405180910390f35b6101c0610736565b005b3480156101ce57600080fd5b506101d761089d565b6040516101e49190610b9e565b60405180910390f35b3480156101f957600080fd5b506102026108b0565b604051610210929190610bb9565b60405180910390f35b34801561022557600080fd5b5061022e6108ef565b60405161023b9190610ad5565b60405180910390f35b34801561025057600080fd5b506102596108f5565b6040516102669190610b31565b60405180910390f35b34801561027b57600080fd5b50610284610919565b005b600360019054906101000a900460ff16156102d6576040517f08c379a00000000000000000000000000000000000000000000000000000000081526004016102cd90610c3f565b60405180910390fd5b6006544210156102e557600080fd5b6001600360016101000a81548160ff02191690831515021790555061032e600460000160019054906101000a900473ffffffffffffffffffffffffffffffffffffffff1661097d565b73ffffffffffffffffffffffffffffffffffffffff166108fc479081150290604051600060405180830381858888f19350505050158015610373573d6000803e3d6000fd5b50565b60055481565b600360019054906101000a900460ff16156103cc576040517f08c379a00000000000000000000000000000000000000000000000000000000081526004016103c390610c3f565b60405180910390fd5b600460000160019054906101000a900473ffffffffffffffffffffffffffffffffffffffff1673ffffffffffffffffffffffffffffffffffffffff163373ffffffffffffffffffffffffffffffffffffffff161461045f576040517f08c379a000000000000000000000000000000000000000000000000000000000815260040161045690610cab565b60405180910390fd5b600360009054906101000a900460ff16600460000160006101000a81548160ff021916908360ff1602179055506104953361097d565b600460000160016101000a81548173ffffffffffffffffffffffffffffffffffffffff021916908373ffffffffffffffffffffffffffffffffffffffff1602179055507fffffffffffffffffffffffffffffffffffffffffffffffffffffffffffffffff6006819055506001600460000160009054906101000a900460ff1660ff161415610580576001600360016101000a81548160ff0219169083151502179055503373ffffffffffffffffffffffffffffffffffffffff166108fc479081150290604051600060405180830381858888f1935050505015801561057e573d6000803e3d6000fd5b505b7f8ce0114e93d91e671379c034ce1d80376d22c05d60f564128b2d9dbee90b467d33600360009054906101000a900460ff166040516105c0929190610ccb565b60405180910390a1565b600160009054906101000a900473ffffffffffffffffffffffffffffffffffffffff1681565b60065481565b600360019054906101000a900460ff1615610646576040517f08c379a000000000000000000000000000000000000000000000000000000000815260040161063d90610c3f565b60405180910390fd5b61064f3361097d565b73ffffffffffffffffffffffffffffffffffffffff16600460000160019054906101000a900473ffffffffffffffffffffffffffffffffffffffff1673ffffffffffffffffffffffffffffffffffffffff16146106e1576040517f08c379a00000000000000000000000000000000000000000000000000000000081526004016106d890610d66565b60405180910390fd5b600554426106ef9190610db5565b6006819055507f02bdd5174ce27e71542ca96bbba5c2c21920793759d94795d2f17eff6f7f2a0f60405160405180910390a1565b600360009054906101000a900460ff1681565b600360019054906101000a900460ff1615610786576040517f08c379a000000000000000000000000000000000000000000000000000000000815260040161077d90610e57565b60405180910390fd5b60025434146107ca576040517f08c379a00000000000000000000000000000000000000000000000000000000081526004016107c190610ec3565b60405180910390fd5b33600160006101000a81548173ffffffffffffffffffffffffffffffffffffffff021916908373ffffffffffffffffffffffffffffffffffffffff16021790555060008054906101000a900473ffffffffffffffffffffffffffffffffffffffff16600460000160016101000a81548173ffffffffffffffffffffffffffffffffffffffff021916908373ffffffffffffffffffffffffffffffffffffffff1602179055507f762f260439bb4be3ef6e4dc2786e2e7bd187d3d80b79057d7a424fe98563e33560405160405180910390a1565b600360019054906101000a900460ff1681565b60048060000160009054906101000a900460ff16908060000160019054906101000a900473ffffffffffffffffffffffffffffffffffffffff16905082565b60025481565b60008054906101000a900473ffffffffffffffffffffffffffffffffffffffff1681565b6001600360016101000a81548160ff0219169083151502179055503373ffffffffffffffffffffffffffffffffffffffff166108fc479081150290604051600060405180830381858888f1935050505015801561097a573d6000803e3d6000fd5b50565b60008060009054906101000a900473ffffffffffffffffffffffffffffffffffffffff1673ffffffffffffffffffffffffffffffffffffffff168273ffffffffffffffffffffffffffffffffffffffff1614156109fe57600160009054906101000a900473ffffffffffffffffffffffffffffffffffffffff169050610ab7565b600160009054906101000a900473ffffffffffffffffffffffffffffffffffffffff1673ffffffffffffffffffffffffffffffffffffffff168273ffffffffffffffffffffffffffffffffffffffff161415610a7c5760008054906101000a900473ffffffffffffffffffffffffffffffffffffffff169050610ab7565b6040517f08c379a0000000000000000000000000000000000000000000000000000000008152600401610aae90610f2f565b60405180910390fd5b919050565b6000819050919050565b610acf81610abc565b82525050565b6000602082019050610aea6000830184610ac6565b92915050565b600073ffffffffffffffffffffffffffffffffffffffff82169050919050565b6000610b1b82610af0565b9050919050565b610b2b81610b10565b82525050565b6000602082019050610b466000830184610b22565b92915050565b600060ff82169050919050565b610b6281610b4c565b82525050565b6000602082019050610b7d6000830184610b59565b92915050565b60008115159050919050565b610b9881610b83565b82525050565b6000602082019050610bb36000830184610b8f565b92915050565b6000604082019050610bce6000830185610b59565b610bdb6020830184610b22565b9392505050565b600082825260208201905092915050565b7f47616d652068617320656e6465642e0000000000000000000000000000000000600082015250565b6000610c29600f83610be2565b9150610c3482610bf3565b602082019050919050565b60006020820190508181036000830152610c5881610c1c565b9050919050565b7f4e6f7420796f7572207475726e2e000000000000000000000000000000000000600082015250565b6000610c95600e83610be2565b9150610ca082610c5f565b602082019050919050565b60006020820190508181036000830152610cc481610c88565b9050919050565b6000604082019050610ce06000830185610b22565b610ced6020830184610b59565b9392505050565b7f43616e6e6f7420737461727420612074696d656f7574206f6e20796f7572736560008201527f6c662e0000000000000000000000000000000000000000000000000000000000602082015250565b6000610d50602383610be2565b9150610d5b82610cf4565b604082019050919050565b60006020820190508181036000830152610d7f81610d43565b9050919050565b7f4e487b7100000000000000000000000000000000000000000000000000000000600052601160045260246000fd5b6000610dc082610abc565b9150610dcb83610abc565b9250827fffffffffffffffffffffffffffffffffffffffffffffffffffffffffffffffff03821115610e0057610dff610d86565b5b828201905092915050565b7f47616d65207761732063616e63656c65642e0000000000000000000000000000600082015250565b6000610e41601283610be2565b9150610e4c82610e0b565b602082019050919050565b60006020820190508181036000830152610e7081610e34565b9050919050565b7f57726f6e672062657420616d6f756e742e000000000000000000000000000000600082015250565b6000610ead601183610be2565b9150610eb882610e77565b602082019050919050565b60006020820190508181036000830152610edc81610ea0565b9050919050565b7f496e76616c696420706c617965722e0000000000000000000000000000000000600082015250565b6000610f19600f83610be2565b9150610f2482610ee3565b602082019050919050565b60006020820190508181036000830152610f4881610f0c565b905091905056fea2646970667358221220003f922c59df410de341212ccec030241a18a02f3eb2e76a7eaf7c711fc36bc364736f6c634300080c0033",
  "immutableReferences": {},
  "source": "// SPDX-License-Identifier: MIT\r\npragma solidity ^0.8.4;\r\n\r\nimport \"@chainlink/contracts/src/v0.8/interfaces/LinkTokenInterface.sol\";\r\nimport \"@chainlink/contracts/src/v0.8/interfaces/VRFCoordinatorV2Interface.sol\";\r\nimport \"@chainlink/contracts/src/v0.8/VRFConsumerBaseV2.sol\";\r\n\r\ncontract deathrollGame {\r\n    address public player1;\r\n    address public player2;\r\n    uint256 public betAmount;\r\n    uint8 public randomExample;\r\n     //starting dice side and bet amount - 1 player proposes, the second player agrees\r\n    //start with starting amount ($) \r\n    //50 sided dice - d50\r\n    bool public gameOver;\r\n    struct GameState {\r\n        uint8 diceSize;\r\n        address whoseTurn;\r\n    }\r\n    GameState public state;\r\n\r\n    uint256 public timeoutInterval;\r\n    uint256 public timeout = 2**256 - 1;\r\n\r\n    event GameStarted();\r\n    event TimeoutStarted();\r\n    event RollMade(address player, uint8 value);\r\n\r\n\r\n    // Setup methods\r\n\r\n    constructor(uint256 _timeoutInterval, uint8 _diceSize) public payable {\r\n        player1 = msg.sender;\r\n        betAmount = msg.value;\r\n        state.diceSize = _diceSize;\r\n        timeoutInterval = _timeoutInterval;\r\n    }\r\n\r\n    function join() public payable {\r\n        //require(player2 == 0, \"Game has already started.\");\r\n        require(!gameOver, \"Game was canceled.\");\r\n        require(msg.value == betAmount, \"Wrong bet amount.\");\r\n\r\n        player2 = msg.sender;\r\n        state.whoseTurn = player1;\r\n\r\n        emit GameStarted();\r\n    }\r\n\r\n    function cancel() public {\r\n        //require(msg.sender == player1, \"Only first player may cancel.\");\r\n        //require(player2 == 0, \"Game has already started.\");\r\n\r\n        gameOver = true;\r\n        payable(msg.sender).transfer(address(this).balance);\r\n    }\r\n\r\n\r\n    // Play methods\r\n\r\n    function move() public {\r\n        require(!gameOver, \"Game has ended.\");\r\n        require(msg.sender == state.whoseTurn, \"Not your turn.\");\r\n        //assume random number is generated for now\r\n\r\n        state.diceSize = randomExample;\r\n        state.whoseTurn = opponentOf(msg.sender);\r\n\r\n        // Clear timeout\r\n        timeout = 2**256 - 1;\r\n\r\n        if (state.diceSize == 1) {\r\n            gameOver = true;\r\n            payable(msg.sender).transfer(address(this).balance); //change to make address payable\r\n        }\r\n\r\n        emit RollMade(msg.sender, randomExample);\r\n    }\r\n\r\n    function opponentOf(address player) internal view returns (address) {\r\n        //require(player2 != 0, \"Game has not started.\");\r\n\r\n        if (player == player1) {\r\n            return player2;\r\n        } else if (player == player2) {\r\n            return player1;\r\n        } else {\r\n            revert(\"Invalid player.\");\r\n        }\r\n    }\r\n\r\n\r\n    // Timeout methods\r\n\r\n    function startTimeout() public {\r\n        require(!gameOver, \"Game has ended.\");\r\n        require(state.whoseTurn == opponentOf(msg.sender),\r\n            \"Cannot start a timeout on yourself.\");\r\n\r\n        timeout = block.timestamp + timeoutInterval;\r\n        emit TimeoutStarted();\r\n    }\r\n\r\n    function claimTimeout() public {\r\n        require(!gameOver, \"Game has ended.\");\r\n        require(block.timestamp >= timeout);\r\n\r\n        gameOver = true;\r\n        payable(opponentOf(state.whoseTurn)).transfer(address(this).balance);\r\n    }\r\n}",
  "sourcePath": "/mnt/c/Users/bomma/blackjack-game/sm_blackjack/contracts/blackjack.sol",
  "compiler": {
    "name": "solc",
    "version": "0.8.12+commit.f00d7308.Emscripten.clang"
  },
  "schemaVersion": "3.4.5",
  "updatedAt": "2022-04-18T03:39:54.916Z",
  "devdoc": {
    "kind": "dev",
    "methods": {},
    "version": 1
  },
  "userdoc": {
    "kind": "user",
    "methods": {},
    "version": 1
  }
}